:1000000065C0000075C0000073C0000071C0000032
:100010006FC000006DC000006BC0000069C0000030
:1000200067C0000065C0000063C0000061C0000040
:100030005FC000005DC000005BC0000059C0000050
:1000400057C0000055C0000053C0000051C0000060
:100050004FC000004DC000004BC000004AC000006F
:1000600047C0000045C0000043C0000041C0000080
:100070003FC000003DC000003BC0000039C0000090
:1000800037C0000035C0000033C0000031C00000A0
:100090002FC000002DC000002BC0000029C00000B0
:1000A00027C0000025C0000023C0000021C00000C0
:1000B0001FC000001DC000001BC0000019C00000D0
:1000C00017C0000015C0000013C0000011241FBE9F
:1000D000CFEFD1E2DEBFCDBF00E00CBF22E0A0E059
:1000E000B2E001C01D92A330B207E1F73CD08BC053
:1000F00087CF1F920F920FB60F9211248F939F9369
:10010000029B0AC080910102909102020196909395
:1001100002028093010207C0029905C010920202F8
:10012000109201020DC080910102909102020B9782
:1001300038F081E0809300021092020210920102D6
:100140009F918F910F900FBE0F901F90189587B1C0
:10015000836087B940980A98089585E085BD81E05D
:1001600080936E0008952FEF3FE744E02150304028
:100170004040E1F700C00000EADFEFDF78949AE04A
:100180005FEF8FE724E0515080402040E1F700C04E
:10019000000080910002882399F3892F4098419AAA
:1001A0003FEF4FEF54E624E03150404050402040B4
:1001B000D9F700C00000409841983FEF4FEF50EE54
:1001C000315040405040E1F700C000004198409A53
:1001D0002FEF3FEF44E654E0215030404040504084
:1001E000D9F700C00000409841982FEF3FEF40EE54
:1001F000215030404040E1F700C00000815071F6CE
:0A02000010920002BDCFF894FFCF6A
:00000001FF
